:020000040000FA
:10000000300400206D020000710200007302000045
:100010007502000077020000790200000000000075
:100020000000000000000000000000007B02000053
:100030007D020000000000007F020000810200003D
:10004000830200008302000083020000830200009C
:10005000830200008302000083020000830200008C
:10006000830200008302000083020000830200007C
:10007000830200008302000083020000830200006C
:10008000830200008302000083020000830200005C
:10009000830200008302000083020000830200004C
:1000A000830200008302000083020000830200003C
:1000B000830200008302000083020000830200002C
:1000C000830200008302000083020000830200001C
:1000D000830200008302000083020000830200000C
:1000E00083020000830200008302000083020000FC
:1000F00083020000830200008302000083020000EC
:1001000083020000830200008302000083020000DB
:1001100083020000830200008302000083020000CB
:1001200083020000830200008302000083020000BB
:1001300083020000830200008302000083020000AB
:1001400000000000000000000000000000000000AF
:10015000830200008302000083020000830200008B
:10016000000000000000000000000000000000008F
:10017000000000000000000000000000000000007F
:10018000000000000000000000000000000000006F
:10019000000000000000000000000000000000005F
:1001A000000000000000000000000000000000004F
:1001B000830200008302000083020000830200002B
:1001C000830200008302000083020000830200001B
:1001D000830200008302000083020000830200000B
:1001E00083020000830200008302000083020000FB
:1001F00083020000830200008302000083020000EB
:10020000830200008302000083020000000000005F
:1002100083020000830200008302000083020000CA
:1002200083020000830200008302000083020000BA
:1002300083020000830200008302000083020000AA
:10024000830200008302000083020000830200009A
:10025000830200008302000083020000830200008A
:1002600083020000830200008302000000F00AB84D
:10027000FEE7FEE7FEE7FEE7FEE7FEE7FEE7FEE756
:10028000FEE7FEE7DFF80CD000F00AF80048004770
:1002900025080000300400200138FDD1704700001F
:1002A000064C074D06E0E06840F0010394E80700C3
:1002B00098471034AC42F6D3FFF7E8FF2044000023
:1002C0004044000010B5044604E045F6C240FFF784
:1002D000E3FF641E002CF8D110BD08B50AE040F21F
:1002E0003E61009102E00099491E009100990029A9
:1002F000F9D1401E0028F2D108BD00001D49096F48
:1003000041F000411B4A11671146096F41F4006139
:1003100011671146096E21F4F86111661146096EE4
:1003200001F5A86111661146096F21F0700111678E
:100330001146096F11671146096F21F400511167C9
:100340001146096F41F0804111671146096F21F094
:10035000FE5101EB8051116700BF0649096D01F0A4
:1003600040010029F9D00349096F21F40061014AD5
:100370001167704700E00F402DE9F05F04460D461D
:1003800091461E460A9F4FF0000BB246781E00FBB6
:1003900006F84048B0F9000084420BDAE81B401C24
:1003A0003D49B1F90010884204DAA019002801DDA6
:1003B000002D01DABDE8F09F3648B0F90000864212
:1003C00004DC3548B0F90000874200DDF2E7A019EF
:1003D000401E3049B1F90010884209DBA0192D49AF
:1003E0000988401A0FFA80FB2A480088001B06B2D1
:1003F000E81B401C002805DA781B401E00FB1A8809
:10040000681C07B2002C07DA301906B260420FFAF6
:1004100080FBA8EB040800241F48B0F900008542C7
:1004200009DB1D480088281A401C381A07B21A48F0
:100430000088401E05B2EBB204EB060CACF1010CD7
:100440000CF0FF02A5EB070C0CF1010C0CF0FF0106
:10045000E0B200F00DFA002516E000240CE039F8B7
:100460001810081200F05AFA19F8180000F056FA9D
:1004700008F10108601C04B2B442F0DBD844022049
:1004800000FB1A88681C05B2BD42E6DB00F0BCF92F
:1004900000BF8FE70E000020100000202DE9F0477C
:1004A00004460D4616461F46DDF820804FEA2829EF
:1004B00008F0FF0A2348B0F90000844204DA224819
:1004C000B0F90000854201DBBDE8F087A019401EAD
:1004D0001C49B1F90010884203DB1A480088001B50
:1004E00006B2E819401E1849B1F90010884203DB32
:1004F00015480088401B07B205EB070CACF1010C56
:100500000CF0FF0304EB060CACF1010C0CF0FF0245
:10051000E9B2E0B200F0ACF93D460DE0344607E048
:10052000484600F0FBF9504600F0F8F9601E04B2AE
:10053000002CF5DC681E05B2002DEFDC00F064F93C
:1005400000BFC1E70E0000201000002038B50446AF
:1005500005480094B0F900300448B0F900200021AB
:100560000846FFF79BFF38BD100000200E0000205A
:1005700010B50446154800F083F8012C09D1144841
:1005800000F053F802201349087001201249087046
:1005900002E0124800F049F8114800F046F8032C38
:1005A00005D1362000F09EF9C02000F0B7F90D48C3
:1005B00004700021084600F019F840F2FF700A4963
:1005C00008800020FFF7C2FF10BD00003E41000080
:1005D000794100000A0000200B0000208641000045
:1005E000934100000D00002008000020142801D8CD
:1005F0000F2900D97047034A1060034A116000BFF9
:10060000F8E70000000000200400002002E008C815
:10061000121F08C1002AFAD170477047002001E07C
:1006200001C1121F002AFBD170472DE9F041044699
:1006300014F8017B1DE014F8010B00F053F914F8D5
:10064000015B05F0800625F0800503E014F8010B3E
:1006500000F064F9281EA5F10101CDB2F6D146B132
:1006600014F8016BFF2E01D14FF4FA763046FFF7F4
:1006700034FE381EA7F10101CFB2DCD1BDE8F08114
:1006800010B5044600205449087054490870544875
:10069000006840F001005249086051481438006871
:1006A00040F001004E491439086000BF4D48006811
:1006B00000F001000028F9D04B48006840F0C80065
:1006C0004949086048482030006820F0C800464981
:1006D000203108604548006840F0C8004349086080
:1006E00042481030006842490840404910310860D3
:1006F000081F006820F0C800091F086000204FF0A4
:100700004021086280203B4908604FF4FA70FFF7EF
:10071000E4FD00204FF04021C1F800024FF4FA70D0
:10072000FFF7DBFD8020334908604FF4FA70FFF7D4
:10073000D4FD2D482030006840F02C002A4920319B
:1007400008602A48006840F02C00284908602748C3
:1007500010300068284908402849084423491031CE
:100760000860081F006820F02C00091F086024485A
:10077000406820F00200224948600846406820F0A6
:10078000040048601F48006820F00F001D49086001
:100790001B48006920F0FF000A301949086108462B
:1007A00000684FF6C0718843154908600846006824
:1007B00020F0300008600846006820F00F00C01DDF
:1007C00008600846406840F00200486014B12046C6
:1007D000FFF72BFF10BD00000B0000200A000020D7
:1007E0001CE60F4008EA0F40004400401C45004052
:1007F000FF0FFF0000420040FF000FFF002220001B
:1008000000800040C88F004000BF0548C06800F06D
:1008100010001028F9D008204FF0402108627047DE
:100820000080004008B50420FFF768FD0220FFF7B4
:100830009FFE4FF47A70FFF745FD4FF6FF70FFF70C
:1008400085FE4FF47A70FFF73DFD4FF6FF70FFF71E
:100850007DFE2C249F2507E0A0202823034A29B2EF
:10086000009020B2FFF788FDF6E700008409000041
:100870002DE9F04104460D4616461F462A2000F099
:1008800031F8002000F04AF8144909782144C8B230
:1008900000F044F8002000F041F810490978314494
:1008A000C8B200F03BF82B2000F01CF8002000F04C
:1008B00035F80B4909782944C8B200F02FF8002018
:1008C00000F02CF8064909783944C8B200F026F83F
:1008D0002C2000F007F8BDE8F08100000A0000209D
:1008E0000B00002000BF0B49C96801F0100110295E
:1008F000F9D000214FF040221162074A11600549EA
:10090000886000BF0349C96801F010011029F9D0BF
:1009100070470000008000400041004000BF0649D1
:10092000C96801F002010029F9D04021034A116091
:10093000014988607047000000800040004100408D
:100940001F00FFFF00F8E00700000842108418C6EF
:10095000FFFF1F00FF07E00700F800001F00FF0770
:10096000E00700F8FFFF1F00FF07E00700F80000A6
:100970001F00FF07E00700F8FFFF1F00FF07E00769
:1009800000F80000FFFFFFFFFFFFFFFFFFFFFFFF7B
:10099000FFFFFFFFFFFFFFFFFFFFFFFFFFFFFFFF67
:1009A000FFFFFFFFFFFFFFFFFFFFFFFFFFFFFFFF57
:1009B000FFFFFFFFFFFFFFFFFFFFFFFFFFFFFFFF47
:1009C000FFFFFFFFFFFFFFFFFFFFFFFFFFFFFFFF37
:1009D000FFFFFFFFFFFFFFFFFFFFFFFFFFFFFFFF27
:1009E000FFFFFFFFFFFFE4202D6359CEFFFFFFFF56
:1009F000FFFFFFFFFFFFFFFFFFFFFFFFFFFFFFFF07
:100A0000FFFFFFFFFFFFFFFFFFFFFFFFFFFFFFFFF6
:100A1000FFFFFFFFFFFFFFFFFFFFFFFFFFFFFFFFE6
:100A2000FFFFFFFFFFFFFFFFFFFFFFFFFFFFFFFFD6
:100A3000FFFFFFFFFFFFE420E420E420E420E420A8
:100A4000E420E420E420E420E420E420E420E42086
:100A5000E420E420E420E420E420E420494AAB5AE6
:100A6000108459CEFFFFFFFFFFFFFFFFFFFFFFFFD7
:100A7000FFFFFFFFFFFFFFFFFFFFFFFFFFFFFFFF86
:100A8000FFFFFFFFFFFFE420E420E420E420E42058
:100A9000E420E420E420E420E420E420E420E42036
:100AA000E420E420E420E420E420E420E420E42026
:100AB000E420E420AB5A3CE7FFFFFFFFFFFFFFFF0E
:100AC000FFFFFFFFFFFFFFFFFFFFFFFFFFFFFFFF36
:100AD000FFFFFFFFFFFFE420E420E420E420E42008
:100AE000E420E420E420E420E420E420E420E420E6
:100AF000E420E420E420E420E420E420E420E420D6
:100B0000E420E420E4206629BAD6FFFFFFFFFFFFC0
:100B1000FFFFFFFFFFFFFFFFFFFFFFFFFFFFFFFFE5
:100B2000FFFFFFFFFFFFE420E420E420E420E420B7
:100B3000E420E420E420E420E420E420E420E42095
:100B4000E420E420E420E420E420E420E420E42085
:100B5000E420E420E420E42066293CE7FFFFFFFFD7
:100B6000FFFFFFFFFFFFFFFFFFFFFFFFFFFFFFFF95
:100B7000FFFFFFFFFFFFE4208E739EF7FFFFFFFFE5
:100B8000FFFFFFFFFFFFFFFFFFFFFFFFFFFFFFFF75
:100B9000FFFFFFFFFFFFFFFFFFFFFFFFFFFF59CE3C
:100BA00075AD2D63E420E420E420AB5AFFFFFFFF86
:100BB000FFFFFFFFFFFFFFFFFFFFFFFFFFFFFFFF45
:100BC000FFFFFFFFFFFFC739FFFFFFFFFFFFFFFF33
:100BD000FFFFFFFFFFFFFFFFFFFFFFFFFFFFFFFF25
:100BE000FFFFFFFFFFFFFFFFFFFFFFFFFFFFFFFF15
:100BF000FFFFFFFF39C66629E420E4203CE7FFFF42
:100C0000FFFFFFFFFFFFFFFFFFFFFFFFFFFFFFFFF4
:100C1000FFFFFFFFFFFFAB5AFFFFFFFFFFFFFFFFDD
:100C2000FFFFFFFFFFFFFFFFFFFFFFFFFFFFFFFFD4
:100C3000FFFFFFFFFFFFFFFFFFFFFFFFFFFFFFFFC4
:100C4000FFFFFFFFFFFFBAD6E420E420F39CFFFF85
:100C5000FFFFFFFFFFFFFFFFFFFFFFFFFFFFFFFFA4
:100C6000FFFFFFFFFFFF1084FFFFFFFFFFFFFFFFFE
:100C7000FFFFFFFFFFFFFFFFFFFFFFFFFFFFFFFF84
:100C8000FFFFFFFFFFFFFFFFFFFFFFFFFFFFFFFF74
:100C9000FFFFFFFFFFFFFFFF728CE4202D63FFFFCC
:100CA000FFFFFFFFFFFFFFFFFFFFFFFFFFFFFFFF54
:100CB000FFFFFFFFFFFFFFFFFFFFFFFFFFFFFFFF44
:100CC000FFFFFFFFFFFFFFFFFFFFFFFFFFFFFFFF34
:100CD000FFFFFFFFFFFFFFFFFFFFFFFFFFFFFFFF24
:100CE000FFFFFFFFFFFFFFFF1CE7E420AB5AFFFF02
:100CF000FFFFFFFFFFFFFFFFFFFFFFFFFFFFFFFF04
:100D0000FFFFFFFFFFFFFFFFFFFFFFFFFFFFFFFFF3
:100D1000FFFFFFFFFFFFFFFFFFFFFFFFFFFFFFFFE3
:100D2000FFFFFFFFFFFFFFFFFFFFFFFFFFFFFFFFD3
:100D3000FFFFFFFFFFFFFFFFFFFFC739494AFFFF2C
:100D4000FFFFFFFFFFFFFFFFFFFFFFFFFFFFFFFFB3
:100D5000FFFFFFFFFFFFFFFFFFFFFFFFFFFFFFFFA3
:100D6000FFFFFFFFFFFFFFFFFFFFFFFFFFFFFFFF93
:100D7000FFFFFFFFFFFFFFFFFFFFFFFFFFFFFFFF83
:100D8000FFFFFFFFFFFFFFFF9EF7E420AB5AFFFFCF
:100D9000FFFFFFFFFFFFFFFFFFFFFFFFFFFFFFFF63
:100DA000FFFFFFFFFFFFFFFFFFFFFFFFFFFFFFFF53
:100DB000FFFFFFFFFFFFFFFFFFFFFFFFFFFFFFFF43
:100DC000FFFFFFFFFFFFFFFFFFFFFFFFFFFFFFFF33
:100DD000FFFFFFFFFFFFFFFF55ADE4207294FFFF11
:100DE000FFFFFFFFFFFFFFFFFFFFFFFFFFFFFFFF13
:100DF000FFFFFFFFFFFF75ADFFFFFFFFFFFFFFFFDF
:100E0000FFFFFFFFFFFFFFFFFFFFFFFFFFFFFFFFF2
:100E1000FFFFFFFFFFFFFFFFFFFFFFFFFFFFFFFFE2
:100E2000FFFFFFFFFFFFFFFFAB5AE420BAD6FFFF33
:100E3000FFFFFFFFFFFFFFFFFFFFFFFFFFFFFFFFC2
:100E4000FFFFFFFFFFFFAB5AFFFFFFFFFFFFFFFFAB
:100E5000FFFFFFFFFFFFFFFFFFFFFFFFFFFFFFFFA2
:100E6000FFFFFFFFFFFFFFFFFFFFFFFFFFFFFFFF92
:100E7000FFFFFFFFFFFFF39CE420AB5AFFFFFFFFE4
:100E8000FFFFFFFFFFFFFFFFFFFFFFFFFFFFFFFF72
:100E9000FFFFFFFFFFFFAB5AFFFFFFFFFFFFFFFF5B
:100EA000FFFFFFFFFFFFFFFFFFFFFFFFFFFFFFFF52
:100EB000FFFFFFFFFFFFFFFFFFFFFFFFFFFFFFFF42
:100EC000FFFFFFFFBAD66629E420BAD6FFFFFFFF77
:100ED000FFFFFFFFFFFFFFFFFFFFFFFFFFFFFFFF22
:100EE000FFFFFFFFFFFFE420BAD6FFFFFFFFFFFF7A
:100EF000FFFFFFFFFFFFFFFFFFFFFFFFFFFFFFFF02
:100F0000FFFFFFFFFFFFFFFFFFFFFFFFFFFFFFFFF1
:100F10009EF77294E420E42075ADFFFFFFFFFFFF12
:100F2000FFFFFFFFFFFFFFFFFFFFFFFFFFFFFFFFD1
:100F3000FFFFFFFFFFFFE42066292D637294729488
:100F40007294729472947294729472947294729471
:100F5000729472947294729472947294AB5A494AD5
:100F6000E420E4206629D7BDFFFFFFFFFFFFFFFF5E
:100F7000FFFFFFFFFFFFFFFFFFFFFFFFFFFFFFFF81
:100F8000FFFFFFFFFFFFE420E420E420E420E42053
:100F9000E420E420E420E420E420E420E420E42031
:100FA000E420E420E420E420E420E420E420E42021
:100FB000494AF39C9EF7FFFFFFFFFFFFFFFFFFFF84
:100FC000FFFFFFFFFFFFFFFFFFFFFFFFFFFFFFFF31
:100FD000FFFFFFFFFFFFE420E4201084729475AD53
:100FE00059CE59CE59CE59CE59CE59CE59CE59CEC9
:100FF00059CE59CE59CE59CE59CE59CEBAD6FFFF79
:10100000FFFFFFFFFFFFFFFFFFFFFFFFFFFFFFFFF0
:10101000FFFFFFFFFFFFFFFFFFFFFFFFFFFFFFFFE0
:10102000FFFFFFFFFFFFE42059CEFFFFFFFFFFFFA1
:10103000FFFFFFFFFFFFFFFFFFFFFFFFFFFFFFFFC0
:10104000FFFFFFFFFFFFFFFFFFFFFFFFFFFFFFFFB0
:10105000FFFFFFFFFFFFFFFFFFFFFFFFFFFFFFFFA0
:10106000FFFFFFFFFFFFFFFFFFFFFFFFFFFFFFFF90
:10107000FFFFFFFFFFFF494AFFFFFFFFFFFFFFFFEB
:10108000FFFFFFFFFFFFFFFFFFFFFFFFFFFFFFFF70
:10109000FFFFFFFFFFFFFFFFFFFFFFFFFFFFFFFF60
:1010A000FFFFFFFFFFFFFFFFFFFFFFFFFFFFFFFF50
:1010B000FFFFFFFFFFFFFFFFFFFFFFFFFFFFFFFF40
:1010C000FFFFFFFFFFFFAB5AFFFFFFFFFFFFFFFF29
:1010D000FFFFFFFFFFFFFFFFFFFFFFFFFFFFFFFF20
:1010E000FFFFFFFFFFFFFFFFFFFFFFFFFFFFFFFF10
:1010F000FFFFFFFFFFFFFFFFFFFFFFFFFFFFFFFF00
:10110000FFFFFFFFFFFFFFFFFFFFFFFFFFFFFFFFEF
:10111000FFFFFFFFFFFFBAD6FFFFFFFFFFFFFFFF4D
:10112000FFFFFFFFFFFFFFFFFFFFFFFFFFFFFFFFCF
:10113000FFFFFFFFFFFFFFFFFFFFFFFFFFFFFFFFBF
:10114000FFFFFFFFFFFFFFFFFFFFFFFFFFFFFFFFAF
:10115000FFFFFFFFFFFFFFFFFFFFFFFFFFFFFFFF9F
:10116000FFFFFFFFFFFFFFFFFFFFFFFFFFFFFFFF8F
:10117000FFFFFFFFFFFFFFFFFFFFFFFFFFFFFFFF7F
:10118000FFFFFFFFFFFFFFFFFFFFFFFFFFFFFFFF6F
:10119000FFFFFFFFFFFFFFFFFFFFFFFFFFFFFFFF5F
:1011A000FFFFFFFFFFFFFFFFFFFFFFFFFFFFFFFF4F
:1011B000FFFFFFFFFFFFAB5AAB5AAB5A494AE4208F
:1011C000C739BAD6FFFFFFFFFFFFFFFFFFFFFFFF9B
:1011D000FFFFFFFFFFFFFFFFFFFFFFFFFFFFFFFF1F
:1011E000FFFFFFFFFFFFFFFFFFFFFFFFFFFFFFFF0F
:1011F000FFFFFFFFFFFFFFFFFFFFFFFFFFFFFFFFFF
:10120000FFFFFFFFFFFFE420E420E4208E733CE7B4
:10121000FFFFFFFFFFFFFFFFFFFFFFFFFFFFFFFFDE
:10122000FFFFFFFFFFFFFFFFFFFFFFFFFFFFFFFFCE
:10123000FFFFFFFFFFFFFFFFFFFFFFFFFFFFFFFFBE
:10124000FFFFFFFFFFFFFFFFFFFFFFFFFFFFFFFFAE
:10125000FFFFFFFFFFFFE420AB5AFFFFFFFFFFFF91
:10126000FFFFFFFFFFFFFFFFFFFFFFFFFFFFFFFF8E
:10127000FFFFFFFFFFFFFFFFFFFFFFFFFFFFFFFF7E
:10128000FFFFFFFFFFFFFFFFFFFF728C59CEFFFF45
:10129000FFFFFFFFFFFFFFFFFFFFFFFFFFFFFFFF5E
:1012A000FFFFFFFFFFFFE420AB5AFFFFFFFFFFFF41
:1012B000FFFFFFFFFFFFFFFFFFFFFFFFFFFFFFFF3E
:1012C000FFFFFFFFFFFFFFFFFFFFFFFFFFFFFFFF2E
:1012D000FFFFFFFFFFFFFFFFFFFF108459CEFFFF5F
:1012E000FFFFFFFFFFFFFFFFFFFFFFFFFFFFFFFF0E
:1012F000FFFFFFFFFFFFE420AB5AFFFFFFFFFFFFF1
:10130000FFFFFFFFFFFFFFFFFFFFFFFFFFFFFFFFED
:10131000FFFFFFFFFFFFFFFFFFFFFFFFFFFFFFFFDD
:10132000FFFFFFFFFFFFFFFF9EF7662959CEFFFF7C
:10133000FFFFFFFFFFFFFFFFFFFFFFFFFFFFFFFFBD
:10134000FFFFFFFFFFFFE420C7397294729472948D
:10135000729472947294729472947294729472945D
:10136000729472947294729472947294729472944D
:101370007294729472948E736629E42059CEFFFFA2
:10138000FFFFFFFFFFFFFFFFFFFFFFFFFFFFFFFF6D
:10139000FFFFFFFFFFFFE420E420E420E420E4203F
:1013A000E420E420E420E420E420E420E420E4201D
:1013B000E420E420E420E420E420E420E420E4200D
:1013C000E420E420E420E420E420E42059CEFFFFE0
:1013D000FFFFFFFFFFFFFFFFFFFFFFFFFFFFFFFF1D
:1013E000FFFFFFFFFFFFE420E420E420E420E420EF
:1013F000E420E420E420E420E420E420E420E420CD
:10140000E420E420E420E420E420E420E420E420BC
:10141000E420E420E420E420E420E42059CEFFFF8F
:10142000FFFFFFFFFFFFFFFFFFFFFFFFFFFFFFFFCC
:10143000FFFFFFFFFFFFE420E420E420E420E4209E
:10144000E420E420E420E420E420E420E420E4207C
:10145000E420E420E420E420E420E420E420E4206C
:10146000E420E420E420E420E420E42059CEFFFF3F
:10147000FFFFFFFFFFFFFFFFFFFFFFFFFFFFFFFF7C
:10148000FFFFFFFFFFFFE420C7397294729472944C
:10149000729472947294729472947294729472941C
:1014A000729472947294729472947294729472940C
:1014B0007294729472947294C739E42059CEFFFFEB
:1014C000FFFFFFFFFFFFFFFFFFFFFFFFFFFFFFFF2C
:1014D000FFFFFFFFFFFFE420AB5AFFFFFFFFFFFF0F
:1014E000FFFFFFFFFFFFFFFFFFFFFFFFFFFFFFFF0C
:1014F000FFFFFFFFFFFFFFFFFFFFFFFFFFFFFFFFFC
:10150000FFFFFFFFFFFFFFFF9EF7C73959CEFFFF29
:10151000FFFFFFFFFFFFFFFFFFFF7FE71E9EBFF7FD
:10152000FFFFFFFFFFFFE420AB5AFFFFFFFFFFFFBE
:10153000FFFFFFFFFFFFFFFFFFFFFFFFFFFFFFFFBB
:10154000FFFFFFFFFFFFFFFFFFFFFFFFFFFFFFFFAB
:10155000FFFFFFFFFFFFFFFFFFFF1CE79EF7FFFFFF
:10156000FFFFFFFFFFFFFFFFFFFF7C449B139D7DFD
:10157000FFFFFFFFFFFFE420AB5AFFFFFFFFFFFF6E
:10158000FFFFFFFFFFFFFFFFFFFFFFFFFFFFFFFF6B
:10159000FFFFFFFFFFFFFFFFFFFFFFFFFFFFFFFF5B
:1015A000FFFFFFFFFFFFFFFFFFFFFFFFFFFFFFFF4B
:1015B000FFFFFFFFFFFFFFFFFFFF9B139B13BC54C9
:1015C000FFFFFFFFFFFFE420E4209EF7FFFFFFFF88
:1015D000FFFFFFFFFFFFFFFFFFFFFFFFFFFFFFFF1B
:1015E000FFFFFFFFFFFFFFFFFFFFFFFFFFFFFFFF0B
:1015F000FFFFFFFFFFFFFFFFFFFFFFFFFFFFFFFFFB
:10160000FFFFFFFFFFFFFFFFFFFF9B139B13BC5478
:10161000FFFFFFFFFFFFE420E420E42010843CE70D
:10162000FFFFFFFFFFFFFFFFFFFFFFFFFFFFFFFFCA
:10163000FFFFFFFFFFFFFFFFFFFFFFFFFFFFFFFFBA
:10164000FFFFFFFFFFFFFFFFFFFFFFFFFFFFFFFFAA
:10165000FFFFFFFFFFFFFFFFFFFF9B139B13FB231A
:10166000FFFFFFFFFFFFAB5AAB5AC739E420E4206E
:10167000C739BAD6FFFFFFFFFFFFFFFFFFFFFFFFE6
:10168000FFFFFFFFFFFFFFFFFFFFFFFFFFFFFFFF6A
:10169000FFFFFFFFFFFFFFFFFFFFFFFFFFFFFFFF5A
:1016A000FFFFFFFFFFFFFFFFFFFF3C349B139B1378
:1016B000FFFFFFFFFFFFFFFFFFFFFFFFFFFFFFFF3A
:1016C000FFFFFFFFFFFFFFFFFFFFFFFFFFFFFFFF2A
:1016D000FFFFFFFFFFFFFFFFFFFFFFFFFFFFFFFF1A
:1016E000FFFFFFFFFFFFFFFFFFFFFFFFFFFFFFFF0A
:1016F000FFFFFFFFFFFFFFFFFFFFBC549B139B1388
:10170000FEC6FFFFFFFFFFFFFFFFFFFFFFFFFFFF23
:10171000FFFFFFFFFFFFFFFFFFFFFFFFFFFFFFFFD9
:10172000FFFFFFFFFFFFFFFFFFFFFFFFFFFFFFFFC9
:10173000FFFFFFFFFFFFFFFFFFFFFFFFFFFFFFFFB9
:10174000FFFFFFFFFFFFFFFFFFFF9D7D9B139B132D
:101750001E9EFFFFFFFFFFFFFFFFFFFFFFFFFFFFDB
:10176000FFFFFFFFFFFFFFFFFFFFFFFFFFFFFFFF89
:10177000FFFFFFFFFFFFFFFFFFFFFFFFFFFFFFFF79
:10178000FFFFFFFFFFFFFFFFFFFFFFFFFFFFFFFF69
:10179000FFFFFFFFFFFFFFFFFFFF5EAE9B139B13EB
:1017A0003C34FFFFFFFFFFFFFFFFFFFFFFFFFFFFD7
:1017B000FFFFFFFFFFFFFFFFFFFFFFFFFFFFFFFF39
:1017C000FFFFFFFFFFFFFFFFFFFFFFFFFFFFFFFF29
:1017D000FFFFFFFFFFFFFFFFFFFFFFFFFFFFFFFF19
:1017E000FFFFFFFFFFFFFFFFFFFFBFF79B139B13F1
:1017F0009B13DD8DFFFFFFFFFFFFFFFFFFFFFFFFDD
:10180000FFFFFFFFFFFFFFFFFFFFFFFFFFFFFFFFE8
:10181000FFFFFFFFFFFFFFFFFFFFFFFFFFFFFFFFD8
:10182000FFFFFFFFFFFFFFFFFFFFFFFFFFFFFFFFC8
:10183000FFFFFFFFFFFFFFFFFFFFFFFFFD5C9B13AD
:101840009B13FB23BFF7FFFFFFFFFFFFFFFFFFFF20
:10185000FFFFFFFFFFFFFFFFFFFFFFFFFFFFFFFF98
:10186000FFFFFFFFFFFFFFFFFFFFFFFFFFFFFFFF88
:10187000FFFFFFFFFFFFFFFFFFFFFFFFFFFFFFFF78
:10188000FFFFFFFFFFFFFFFFFFFFFFFFFEC69B13F2
:101890009B139B13FD64FFFFFFFFFFFFFFFFFFFF95
:1018A000FFFFFFFFFFFFFFFFFFFFFFFFFFFFFFFF48
:1018B000FFFFFFFFFFFFFFFFFFFFFFFFFFFFFFFF38
:1018C000FFFFFFFFFFFFFFFFFFFFFFFFFFFFFFFF28
:1018D000FFFFFFFFFFFFFFFFFFFFFFFFFFFFBC5406
:1018E0009B139B139B139D7DFFFFFFFFFFFFFFFFDC
:1018F000FFFFFFFFFFFFFFFFFFFFFFFFFFFFFFFFF8
:10190000FFFFFFFFFFFFFFFFFFFFFFFFFFFFFFFFE7
:10191000FFFFFFFFFFFFFFFFFFFFFFFFFFFFFFFFD7
:10192000FFFFFFFFFFFFFFFFFFFFFFFFFFFF7FE75F
:101930009B139B139B139B139D7DFFFFFFFFFFFFDB
:10194000FFFFFFFFFFFFFFFFFFFFFFFFFFFFFFFFA7
:10195000FFFFFFFFFFFFFFFFFFFFFFFFFFFFFFFF97
:10196000FFFFFFFFFFFFFFFFFFFFFFFFFFFFFFFF87
:10197000FFFFFFFFFFFFFFFFFFFFFFFFFFFFFFFF77
:10198000DD8D9B139B139B139B135D6DFFFFFFFF6F
:10199000FFFFFFFFFFFFFFFFFFFFFFFFFFFFFFFF57
:1019A000FFFFFFFFFFFFFFFFFFFFFFFFFFFFFFFF47
:1019B000FFFFFFFFFFFFFFFFFFFFFFFFFFFFFFFF37
:1019C000FFFFFFFFFFFFFFFFFFFFFFFFFFFFFFFF27
:1019D000FFFF7C449B139B139B139B135EAEFFFF87
:1019E000FFFFFFFFFFFFFFFFFFFFFFFFFFFFFFFF07
:1019F000FFFFFFFFFFFFFFFFFFFFFFFFFFFFFFFFF7
:101A0000FFFFFFFFFFFFFFFFFFFFFFFFFFFFFFFFE6
:101A1000FFFFFFFFFFFFFFFFFFFFFFFFFFFFFFFFD6
:101A2000FFFF3FD79B139B139B139B139B13FEC678
:101A3000FFFFFFFFFFFFFFFFFFFFFFFFFFFFFFFFB6
:101A4000FFFFFFFFFFFFFFFFFFFFFFFFFFFFFFFFA6
:101A5000FFFFFFFFFFFFFFFFFFFFFFFFFFFFFFFF96
:101A6000FFFFFFFFFFFFFFFFFFFFFFFFFFFFFFFF86
:101A7000FFFFFFFFDD8D9B139B139B139B133C34D8
:101A8000BFF7BFF7FB233C343FD7FFFFFFFFFFFF4C
:101A9000FFFFFFFFFFFFFFFFFFFFFFFFFFFFFFFF56
:101AA000FFFFFFFFFFFFFFFFFFFFFFFFFFFFFFFF46
:101AB000FFFFFFFFFFFFFFFFFFFFFFFFFFFFFFFF36
:101AC000FFFFFFFFBFF7FB239B139B139B139B138E
:101AD0001E9EFEC69B139B133C34BFF7FFFFFFFF08
:101AE000FFFFFFFFFFFFFFFFFFFFFFFFFFFFFFFF06
:101AF000FFFFFFFFFFFFFFFFFFFFFFFFFFFFFFFFF6
:101B0000FFFFFFFFFFFFFFFFFFFFFFFFFFFFFFFFE5
:101B1000FFFFFFFFFFFFDD8D9B139B139B139B13A9
:101B20003C343D6D9B139B139B135EAEFFFFFFFF89
:101B3000FFFFFFFFFFFFFFFFFFFFFFFFFFFFFFFFB5
:101B4000FFFFFFFFFFFFFFFFFFFFFFFFFFFFFFFFA5
:101B5000FFFFFFFFFFFFFFFFFFFFFFFFFFFFFFFF95
:101B6000FFFFFFFFFFFFBFF7FB239B139B139B139D
:101B70009B139B139B139B139B13DD8DFFFFFFFF99
:101B8000FFFFFFFFFFFFFFFFFFFFFFFFFFFFFFFF65
:101B9000FFFFFFFFFFFFFFFFFFFFFFFFFFFFFFFF55
:101BA000FFFFFFFFFFFFFFFFFFFFFFFFFFFFFFFF45
:101BB000FFFFFFFFFFFFFFFF3D6D9B139B139B1379
:101BC0009B139B139B139B139B13DD8DFFFFFFFF49
:101BD000FFFFFFFFFFFFFFFFFFFFFFFFFFFFFFFF15
:101BE000FFFFFFFFFFFFFFFFFFFFFFFFFFFFFFFF05
:101BF000FFFFFFFFFFFFFFFFFFFFFFFFFFFFFFFFF5
:101C0000FFFFFFFFFFFFFFFF7FE79B139B139B136C
:101C10009B139B139B139B139B135EAEFFFFFFFF56
:101C2000FFFFFFFFFFFFFFFFFFFFFFFFFFFFFFFFC4
:101C3000FFFFFFFFFFFFFFFFFFFFFFFFFFFFFFFFB4
:101C4000FFFFFFFFFFFFFFFFFFFFFFFFFFFFFFFFA4
:101C5000FFFFFFFFFFFFFFFFFFFF7C449B139B1372
:101C60009B139B139B139B139B137FE7FFFFFFFFAC
:101C7000FFFFFFFFFFFFFFFFFFFFFFFFFFFFFFFF74
:101C8000FFFFFFFFFFFFFFFFFFFFFFFFFFFFFFFF64
:101C9000FFFFFFFFFFFFFFFFFFFFFFFFFFFFFFFF54
:101CA000FFFFFFFFFFFFFFFFFFFFDD8D9B139B1378
:101CB0009B139B139B139B13FD64FFFFFFFFFFFF11
:101CC000FFFFFFFFFFFFFFFFFFFFFFFFFFFFFFFF24
:101CD000FFFFFFFFFFFFFFFFFFFFFFFFFFFFFFFF14
:101CE000FFFFFFFFFFFFFFFFFFFFFFFFFFFFFFFF04
:101CF000FFFFFFFFFFFFFFFFFFFFBC549B139B1382
:101D00009B139B139B139B139B139B13BC545EAEA3
:101D1000FFFFFFFFFFFFFFFFFFFFFFFFFFFFFFFFD3
:101D2000FFFFFFFFFFFFFFFFFFFFFFFFFFFFFFFFC3
:101D3000FFFFFFFFFFFFFFFFFFFFFFFFFFFFFFFFB3
:101D4000FFFFFFFFFFFFFFFFDD8D9B139B139B1327
:101D50009B139B139B139B139B139B139B139B1313
:101D60003C345EAEFFFFFFFFFFFFFFFFFFFFFFFF03
:101D7000FFFFFFFFFFFFFFFFFFFFFFFFFFFFFFFF73
:101D8000FFFFFFFFFFFFFFFFFFFFFFFFFFFFFFFF63
:101D9000FFFFFFFFFFFFFFFFFB239B139B139B1323
:101DA0009B139B139B139B139B139B139B139B13C3
:101DB0009B139B133C34FEC6FFFFFFFFFFFFFFFF9B
:101DC000FFFF3FD7FEC6FEC6BFF7FFFFFFFFFFFFC7
:101DD000FFFFFFFFFFFFFFFFFFFFFFFFFFFFFFFF13
:101DE000FFFFFFFFFFFFBFF79B139B139B139B138B
:101DF0009B139B139B139B139B139B139B139B1373
:101E00009B139B139B139B133C34DD8D5EAE9D7D1A
:101E10003C349B139B139B139B131E9EFFFFFFFFE2
:101E2000FFFFFFFFFFFFFFFFFFFFFFFFFFFFFFFFC2
:101E3000FFFFFFFFFFFFFEC69B139B139B139B132C
:101E40009B139B139B139B139B139B139B139B1322
:101E50009B139B139B139B139B139B139B139B1312
:101E60009B139B139B139B139B139B13FD64BFF747
:101E7000FFFFFFFFFFFFFFFFFFFFFFFFFFFFFFFF72
:101E8000FFFFFFFFFFFFFEC69B139B139B139B13DC
:101E90009B139B139B139B139B139B139B139B13D2
:101EA0009B139B139B139B139B139B139B139B13C2
:101EB0009B139B139B139B139B139B139B13FD64FF
:101EC000FFFFFFFFFFFFFFFFFFFFFFFFFFFFFFFF22
:101ED000FFFFFFFFFFFF1E9E9B139B139B139B1394
:101EE0009B139B139B139B139B139B139B139B1382
:101EF0009B139B139B139B139B139B139B139B1372
:101F00009B139B139B139B139B139B139B139B1361
:101F1000FFFFFFFFFFFFFFFFFFFFFFFFFFFFFFFFD1
:101F2000FFFFFFFFFFFFDD8D9B139B139B139B1395
:101F30009B139B139B139B139B139B139B139B1331
:101F40009B139B139B139B139B139B139B139B1321
:101F50009B139B139B139B139B139B139B13BC54AF
:101F6000FFFFFFFFFFFFFFFFFFFFFFFFFFFFFFFF81
:101F7000FFFFFFFFFFFF5EAE9B139B139B139B13A3
:101F80009B139B139B139B139B139B139B139B13E1
:101F90009B139B139B139B139B139B139B139B13D1
:101FA0009B139B139B139B139B139B139B137C44AF
:101FB000FFFFFFFFFFFFFFFFFFFFFFFFFFFFFFFF31
:101FC000FFFFFFFFFFFFDD8D9B139B139B139B13F5
:101FD0009B139B139B139B139B139B139B139B1391
:101FE0009B139B139B139B139B139B139B139B1381
:101FF0009B139B139B139B139B139B139B139B1371
:10200000FFFFFFFFFFFFFFFFFFFFFFFFFFFFFFFFE0
:10201000FFFFFFFFFFFFFEC69B139B139B139B134A
:102020009B139B139B139B139B139B139B139B1340
:102030009B139B139B139B139B139B139B139B1330
:102040009B139B139B139B139B139B139B13FD646D
:10205000FFFFFFFFFFFFFFFFFFFFFFFFFFFFFFFF90
:10206000FFFFFFFFFFFF3FD79B139B139B139B13A8
:102070009B139B139B139B139B139B139B139B13F0
:102080009B139B139B139B139B139B139B139B13E0
:102090009B139B139B139B139B139B135D6DBFF7AC
:1020A000FFFFFFFFFFFFFFFFFFFFFFFFFFFFFFFF40
:1020B000FFFFFFFFFFFFFFFF9B139B139B139B1370
:1020C0009B139B139B139B139B139B139B139B13A0
:1020D0009B139B139B139B13FB239D7DDD8D9D7D8C
:1020E0003C349B139B139B139B131E9EFFFFFFFF10
:1020F000FFFFFFFFFFFFFFFFFFFFFFFFFFFFFFFFF0
:10210000FFFFFFFFFFFFFFFFFB239B139B139B13AF
:102110009B139B139B139B139B139B139B139B134F
:102120009B139B13FB23DD8DBFF7FFFFFFFFFFFF1B
:10213000FFFF3FD7FEC6FEC67FE7FFFFFFFFFFFFA3
:10214000FFFFFFFFFFFFFFFFFFFFFFFFFFFFFFFF9F
:10215000FFFFFFFFFFFFFFFF3D6D9B139B139B13D3
:102160009B139B139B139B139B139B139B139B13FF
:102170009B135D6D7FE7FFFFFFFFFFFFFFFFFFFF8B
:10218000FFFFFFFFFFFFFFFFFFFFFFFFFFFFFFFF5F
:10219000FFFFFFFFFFFFFFFFFFFFFFFFFFFFFFFF4F
:1021A000FFFFFFFFFFFFFFFF7FE77C449B139B13B5
:1021B0009B139B139B139B139B139B139B135D6D93
:1021C0007FE7FFFFFFFFFFFFFFFFFFFFFFFFFFFFB7
:1021D000FFFFFFFFFFFFFFFFFFFFFFFFFFFFFFFF0F
:1021E000FFFFFFFFFFFFFFFFFFFFFFFFFFFFFFFFFF
:1021F000FFFFFFFFFFFFFFFFFFFF1E9E9B139B13D1
:102200009B139B139B139B133C34FEC6BFF7FFFF2E
:10221000FFFFFFFFFFFFFFFFFFFFFFFFFFFFFFFFCE
:10222000FFFFFFFFFFFFFFFFFFFFFFFFFFFFFFFFBE
:10223000FFFFFFFFFFFFFFFFFFFFFFFFFFFFFFFFAE
:10224000FFFFFFFFFFFFFFFFFFFFDD8D9B139B13D2
:102250009B139B139B139B139B133FD7FFFFFFFF06
:10226000FFFFFFFFFFFFFFFFFFFFFFFFFFFFFFFF7E
:10227000FFFFFFFFFFFFFFFFFFFFFFFFFFFFFFFF6E
:10228000FFFFFFFFFFFFFFFFFFFFFFFFFFFFFFFF5E
:10229000FFFFFFFFFFFFFFFFFFFF7C449B139B132C
:1022A0009B139B139B139B139B139D7DFFFFFFFFB2
:1022B000FFFFFFFFFFFFFFFFFFFFFFFFFFFFFFFF2E
:1022C000FFFFFFFFFFFFFFFFFFFFFFFFFFFFFFFF1E
:1022D000FFFFFFFFFFFFFFFFFFFFFFFFFFFFFFFF0E
:1022E000FFFFFFFFFFFFFFFF3FD79B139B139B13D6
:1022F0009B139B139B139B139B13BC54FFFFFFFF6C
:10230000FFFFFFFFFFFFFFFFFFFFFFFFFFFFFFFFDD
:10231000FFFFFFFFFFFFFFFFFFFFFFFFFFFFFFFFCD
:10232000FFFFFFFFFFFFFFFFFFFFFFFFFFFFFFFFBD
:10233000FFFFFFFFFFFFFFFF3D6D9B139B139B13F1
:102340009B139B139B139B139B13BC54FFFFFFFF1B
:10235000FFFFFFFFFFFFFFFFFFFFFFFFFFFFFFFF8D
:10236000FFFFFFFFFFFFFFFFFFFFFFFFFFFFFFFF7D
:10237000FFFFFFFFFFFFFFFFFFFFFFFFFFFFFFFF6D
:10238000FFFFFFFFFFFF7FE79B139B139B139B1335
:102390009B13FD649B139B139B135D6DFFFFFFFF5E
:1023A000FFFFFFFFFFFFFFFFFFFFFFFFFFFFFFFF3D
:1023B000FFFFFFFFFFFFFFFFFFFFFFFFFFFFFFFF2D
:1023C000FFFFFFFFFFFFFFFFFFFFFFFFFFFFFFFF1D
:1023D000FFFFFFFFFFFFDD8D9B139B139B139B13E1
:1023E0003C34BFF79B139B139B135EAEFFFFFFFFB5
:1023F000FFFFFFFFFFFFFFFFFFFFFFFFFFFFFFFFED
:10240000FFFFFFFFFFFFFFFFFFFFFFFFFFFFFFFFDC
:10241000FFFFFFFFFFFFFFFFFFFFFFFFFFFFFFFFCC
:10242000FFFFFFFFBFF7FB239B139B139B139B1324
:102430005EAEFFFF3C349B135D6DFFFFFFFFFFFFB0
:10244000FFFFFFFFFFFFFFFFFFFFFFFFFFFFFFFF9C
:10245000FFFFFFFFFFFFFFFFFFFFFFFFFFFFFFFF8C
:10246000FFFFFFFFFFFFFFFFFFFFFFFFFFFFFFFF7C
:10247000FFFFFFFF9D7D9B139B139B139B13BC547E
:10248000FFFFFFFF3FD7FEC6FFFFFFFFFFFFFFFF7E
:10249000FFFFFFFFFFFFFFFFFFFFFFFFFFFFFFFF4C
:1024A000FFFFFFFFFFFFFFFFFFFFFFFFFFFFFFFF3C
:1024B000FFFFFFFFFFFFFFFFFFFFFFFFFFFFFFFF2C
:1024C000FFFFFEC69B139B139B139B13FB237FE70E
:1024D000FFFFFFFFFFFFFFFFFFFFFFFFFFFFFFFF0C
:1024E000FFFFFFFFFFFFFFFFFFFFFFFFFFFFFFFFFC
:1024F000FFFFFFFFFFFFFFFFFFFFFFFFFFFFFFFFEC
:10250000FFFFFFFFFFFFFFFFFFFFFFFFFFFFFFFFDB
:10251000FFFF3C349B139B139B13FB233FD7FFFF11
:10252000FFFFFFFFFFFFFFFFFFFFFFFFFFFFFFFFBB
:10253000FFFFFFFFFFFFFFFFFFFFFFFFFFFFFFFFAB
:10254000FFFFFFFFFFFFFFFFFFFFFFFFFFFFFFFF9B
:10255000FFFFFFFFFFFFFFFFFFFFFFFFFFFFFFFF8B
:10256000DD8D9B139B139B139B135EAEFFFFFFFF41
:10257000FFFFFFFFFFFFFFFFFFFFFFFFFFFFFFFF6B
:10258000FFFFFFFFFFFFFFFFFFFFFFFFFFFFFFFF5B
:10259000FFFFFFFFFFFFFFFFFFFFFFFFFFFFFFFF4B
:1025A000FFFFFFFFFFFFFFFFFFFFFFFFFFFF7FE7D3
:1025B000FB239B139B139B135EAEFFFFFFFFFFFFED
:1025C000FFFFFFFFFFFFFFFFFFFFFFFFFFFFFFFF1B
:1025D000FFFFFFFFFFFFFFFFFFFFFFFFFFFFFFFF0B
:1025E000FFFFFFFFFFFFFFFFFFFFFFFFFFFFFFFFFB
:1025F000FFFFFFFFFFFFFFFFFFFFFFFFFFFF3D6D3F
:102600009B139B139B131E9EFFFFFFFFFFFFFFFF0C
:10261000FFFFFFFFFFFFFFFFFFFFFFFFFFFFFFFFCA
:10262000FFFFFFFFFFFFFFFFFFFFFFFFFFFFFFFFBA
:10263000FFFFFFFFFFFFFFFFFFFFFFFFFFFFFFFFAA
:10264000FFFFFFFFFFFFFFFFFFFFFFFFBFF79B1332
:102650009B139B13BC54FFFFFFFFFFFFFFFFFFFF18
:10266000FFFFFFFFFFFFFFFFFFFFFFFFFFFFFFFF7A
:10267000FFFFFFFFFFFFFFFFFFFFFFFFFFFFFFFF6A
:10268000FFFFFFFFFFFFFFFFFFFFFFFFFFFFFFFF5A
:10269000FFFFFFFFFFFFFFFFFFFFFFFF1E9E9B13DC
:1026A0009B139B137FE7FFFFFFFFFFFFFFFFFFFF72
:1026B000FFFFFFFFFFFFFFFFFFFFFFFFFFFFFFFF2A
:1026C000FFFFFFFFFFFFFFFFFFFFFFFFFFFFFFFF1A
:1026D000FFFFFFFFFFFFFFFFFFFFFFFFFFFFFFFF0A
:1026E000FFFFFFFFFFFFFFFFFFFFFFFF7C449B1388
:1026F0009B139D7DFFFFFFFFFFFFFFFFFFFFFFFF1E
:10270000FFFFFFFFFFFFFFFFFFFFFFFFFFFFFFFFD9
:10271000FFFFFFFFFFFFFFFFFFFFFFFFFFFFFFFFC9
:10272000FFFFFFFFFFFFFFFFFFFFFFFFFFFFFFFFB9
:10273000FFFFFFFFFFFFFFFFFFFFFFFF9B139B1349
:102740009B137FE7FFFFFFFFFFFFFFFFFFFFFFFF81
:10275000FFFFFFFFFFFFFFFFFFFFFFFFFFFFFFFF89
:10276000FFFFFFFFFFFFFFFFFFFFFFFFFFFFFFFF79
:10277000FFFFFFFFFFFFFFFFFFFFFFFFFFFFFFFF69
:10278000FFFFFFFFFFFFFFFFFFFFFEC69B139B1333
:10279000BC54FFFFFFFF75ADFFFFFFFFFFFFFFFF13
:1027A000FFFFFFFFFFFFFFFFFFFFFFFFFFFFFFFF39
:1027B000FFFFFFFFFFFFFFFFFFFFFFFFFFFFFFFF29
:1027C000FFFFFFFFFFFFFFFFFFFF39C63CE7FFFFF3
:1027D000FFFFFFFFFFFFFFFFFFFF9EB69B139B1353
:1027E0009D7DFFFFFFFFAB5AFFFFFFFFFFFFFFFFD6
:1027F000FFFFFFFFFFFFFFFFFFFFFFFFFFFFFFFFE9
:10280000FFFFFFFFFFFFFFFFFFFFFFFFFFFFFFFFD8
:10281000FFFFFFFFFFFFFFFFFFFF728C59CEFFFF9F
:10282000FFFFFFFFFFFFFFFFFFFFDD8D9B139B13EC
:10283000DD8DFFFFFFFFAB5AFFFFFFFFFFFFFFFF35
:10284000FFFFFFFFFFFFFFFFFFFFFFFFFFFFFFFF98
:10285000FFFFFFFFFFFFFFFFFFFFFFFFFFFFFFFF88
:10286000FFFFFFFFFFFFFFFFFFFF8E7359CEFFFF4C
:10287000FFFFFFFFFFFFFFFFFFFFDD8D9B139B139C
:10288000BEB6FFFFFFFFE420BAD6FFFFFFFFFFFF4A
:10289000FFFFFFFFFFFFFFFFFFFFFFFFFFFFFFFF48
:1028A000FFFFFFFFFFFFFFFFFFFFFFFFFFFFFFFF38
:1028B000FFFFFFFFFFFFFFFFBAD6662959CEFFFFDC
:1028C000FFFFFFFFFFFFFFFFFFFFDD8D9B139B134C
:1028D000FEC6FFFFFFFFE420E420494AAB5AAB5A93
:1028E000AB5AAB5AAB5AAB5AAB5AAB5AAB5AAB5AC0
:1028F000AB5AAB5AAB5AAB5AAB5AAB5AAB5AAB5AB0
:10290000AB5AAB5AAB5AAB5A6629E42059CEFFFFFB
:10291000FFFFFFFFFFFFFFFFFFFF9EB69B139B1311
:102920003FD7FFFFFFFFE420E420E420E420E42081
:10293000E420E420E420E420E420E420E420E42077
:10294000E420E420E420E420E420E420E420E42067
:10295000E420E420E420E420E420E42059CEFFFF3A
:10296000FFFFFFFFFFFFFFFFFFFF7FE7FB237C442D
:10297000FFFFFFFFFFFFE420E420E420E420E42049
:10298000E420E420E420E420E420E420E420E42027
:10299000E420E420E420E420E420E420E420E42017
:1029A000E420E420E420E420E420E42059CEFFFFEA
:1029B000FFFFFFFFFFFFFFFFFFFFFFFFFFFFFFFF27
:1029C000FFFFFFFFFFFFE420E420E420E420E420F9
:1029D000E420E420E420E420E420E420E420E420D7
:1029E000E420E420E420E420E420E420E420E420C7
:1029F000E420E420E420E420E420E42059CEFFFF9A
:102A0000FFFFFFFFFFFFFFFFFFFFFFFFFFFFFFFFD6
:102A1000FFFFFFFFFFFFE4208E7359CE59CE59CE42
:102A200059CE59CE59CE59CE59CE59CE59CE494A02
:102A3000494A59CE59CE59CE59CE59CE59CE59CEF2
:102A400059CE59CE59CED7BD494AE42059CEFFFFC1
:102A5000FFFFFFFFFFFFFFFFFFFFFFFFFFFFFFFF86
:102A6000FFFFFFFFFFFFE4207294FFFFFFFFFFFF68
:102A7000FFFFFFFFFFFFFFFFFFFFFFFFFFFFAB5267
:102A8000AB5AFFFFFFFFFFFFFFFFFFFFFFFFFFFF4F
:102A9000FFFFFFFFFFFFFFFF39C6E42059CEFFFF16
:102AA000FFFFFFFFFFFFFFFFFFFFFFFFFFFFFFFF36
:102AB000FFFFFFFFFFFFE4207294FFFFFFFFFFFF18
:102AC000FFFFFFFFFFFFFFFFFFFFFFFFFFFFAB5217
:102AD000AB5AFFFFFFFFFFFFFFFFFFFFFFFFFFFFFF
:102AE000FFFFFFFFFFFFFFFF39C6E42059CEFFFFC6
:102AF000FFFFFFFFFFFFFFFFFFFFFFFFFFFFFFFFE6
:102B0000FFFFFFFFFFFFE4207294FFFFFFFFFFFFC7
:102B1000FFFFFFFFFFFFFFFFFFFFFFFFFFFF494A30
:102B2000AB5AFFFFFFFFFFFFFFFFFFFFFFFFFFFFAE
:102B3000FFFFFFFFFFFFFFFF39C6E42059CEFFFF75
:102B4000FFFFFFFFFFFFFFFFFFFFFFFFFFFFFFFF95
:102B5000FFFFFFFFFFFFE4207294FFFFFFFFFFFF77
:102B6000FFFFFFFFFFFFFFFFFFFFFFFF9EF7E420D8
:102B7000E4209EF7FFFFFFFFFFFFFFFFFFFFFFFFC8
:102B8000FFFFFFFFFFFFFFFF39C6E42059CEFFFF25
:102B9000FFFFFFFFFFFFFFFFFFFFFFFFFFFFFFFF45
:102BA000FFFFFFFFFFFFE4207294FFFFFFFFFFFF27
:102BB000FFFFFFFFFFFFFFFFFFFFFFFF8E73E4201C
:102BC000E4208E73FFFFFFFFFFFFFFFFFFFFFFFF0C
:102BD000FFFFFFFFFFFFFFFFD7BDE42059CEFFFF40
:102BE000FFFFFFFFFFFFFFFFFFFFFFFFFFFFFFFFF5
:102BF000FFFFFFFFFFFFE4202D63FFFFFFFFFFFF4D
:102C0000FFFFFFFFFFFF55AD1084C739E420E4202C
:102C1000E420E420C7398E7375ADFFFFFFFFFFFF8F
:102C2000FFFFFFFFFFFFFFFF1084E42059CEFFFFEF
:102C3000FFFFFFFFFFFFFFFFFFFFFFFFFFFFFFFFA4
:102C4000FFFFFFFFFFFFE420E42059CEFFFFFFFF5F
:102C5000FFFFFFFFFFFFBAD659CE59CE59CE59CE4E
:102C600059CE59CE59CE59CEBAD6FFFFFFFFFFFF3E
:102C7000FFFFFFFFFFFF9EF76629E42059CEFFFF0D
:102C8000FFFFFFFFFFFFFFFFFFFFFFFFFFFFFFFF54
:102C9000FFFFFFFFFFFFE420E420E4208E7359CE06
:102CA000FFFFFFFFFFFFFFFFFFFFFFFFFFFFFFFF34
:102CB000FFFFFFFFFFFFFFFFFFFFFFFFFFFFFFFF24
:102CC000FFFFFFFFFFFF2D63E420E42059CEFFFF4D
:102CD000FFFFFFFFFFFFFFFFFFFFFFFFFFFFFFFF04
:102CE000FFFFFFFFFFFF2D63AB5AAB5AAB5AAB5A46
:102CF0006629FFFFFFFFFFFFFFFFFFFFFFFFFFFF53
:102D0000FFFFFFFFFFFFFFFFFFFFFFFFFFFFFFFFD3
:102D1000FFFF9EF7494AE420E420C739BAD6FFFFF7
:102D2000FFFFFFFFFFFFFFFFFFFFFFFFFFFFFFFFB3
:102D3000FFFFFFFFFFFFFFFFFFFFFFFFFFFFFFFFA3
:102D4000FFFFFFFFFFFFFFFFFFFFFFFFFFFFFFFF93
:102D5000FFFFFFFFFFFFFFFFFFFFFFFFFFFFFFFF83
:102D60007294662966291084BAD6FFFFFFFFFFFF21
:102D7000FFFFFFFFFFFFFFFFFFFFFFFFFFFFFFFF63
:102D8000FFFFFFFFFFFFFFFFFFFFFFFFFFFFFFFF53
:102D9000FFFFFFFFFFFFFFFFFFFFFFFFFFFFFFFF43
:102DA000FFFFFFFFFFFFFFFFFFFFFFFFFFFFF39CA2
:102DB0008E73D7BDFFFFFFFFFFFFFFFFFFFFFFFF8A
:102DC000FFFFFFFFFFFFFFFFFFFFFFFFFFFFFFFF13
:102DD000FFFFFFFFFFFFFFFFFFFFFFFFFFFFFFFF03
:102DE000FFFFFFFFFFFFFFFFFFFFFFFFFFFFFFFFF3
:102DF000FFFFFFFFFFFFFFFFFFFFFFFFFFFFFFFFE3
:102E0000FFFFFFFFFFFFFFFFFFFFFFFFFFFFFFFFD2
:102E1000FFFFFFFFFFFFFFFFFFFFFFFFFFFFFFFFC2
:102E2000FFFFFFFFFFFFFFFFFFFFFFFFFFFFFFFFB2
:102E3000FFFFFFFFFFFFFFFFFFFFFFFFFFFFFFFFA2
:102E4000FFFFFFFFFFFFFFFFFFFFFFFFFFFFFFFF92
:102E5000FFFFFFFFFFFFFFFFFFFFFFFFFFFFFFFF82
:102E6000FFFFFFFFFFFFFFFFFFFFFFFFFFFFFFFF72
:102E7000FFFFFFFFFFFFFFFFFFFFFFFFFFFFFFFF62
:102E8000FFFFFFFFFFFFFFFFFFFFBAD675AD729494
:102E900072947294729475ADBAD6FFFFFFFFFFFF74
:102EA000FFFFFFFFFFFFFFFFFFFFFFFFFFFFFFFF32
:102EB000FFFFFFFFFFFFFFFFFFFFFFFFFFFFFFFF22
:102EC000FFFFFFFFFFFFFFFFFFFFFFFFFFFFFFFF12
:102ED000FFFFFFFFBAD68E736629E420E420E420CA
:102EE000E420E420E420E420E42066298E73BAD6AE
:102EF000FFFFFFFFFFFFFFFFFFFFFFFFFFFFFFFFE2
:102F0000FFFFFFFFFFFFFFFFFFFFFFFFFFFFFFFFD1
:102F1000FFFFFFFFFFFFFFFFFFFFFFFFFFFFFFFFC1
:102F20001CE7AB5AE420E420E420E420E420E42081
:102F3000E420E420E420E420E420E420E420E42071
:102F40002D639EF7FFFFFFFFFFFFFFFFFFFFFFFF68
:102F5000FFFFFFFFFFFFFFFFFFFFFFFFFFFFFFFF81
:102F6000FFFFFFFFFFFFFFFFFFFFFFFFFFFF55AD6D
:102F70006629E420E420E420E420E420E420E420A6
:102F8000E420E420E420E420E420E420E420E42021
:102F9000E420662959CEFFFFFFFFFFFFFFFFFFFF81
:102FA000FFFFFFFFFFFFFFFFFFFFFFFFFFFFFFFF31
:102FB000FFFFFFFFFFFFFFFFFFFFFFFF8E73E42018
:102FC000E420E420E420E420E420E420E420E420E1
:102FD000E420E420E420E420E420E420E420E420D1
:102FE000E420E420E42075ADFFFFFFFFFFFFFFFFBB
:102FF000FFFFFFFFFFFFFFFFFFFFFFFFFFFFFFFFE1
:10300000FFFFFFFFFFFFFFFFFFFF728CE420E420C4
:10301000E420E42066292D63729459CE59CEFFFF37
:10302000FFFFFFFFFFFF59CED7BD1084C739E42053
:10303000E420E420E420E42059CEFFFFFFFFFFFF5F
:10304000FFFFFFFFFFFFFFFFFFFFFFFFFFFFFFFF90
:10305000FFFFFFFFFFFFFFFF39C6E420E420E4206D
:10306000C73975ADFFFFFFFFFFFFFFFFFFFFFFFF4A
:10307000FFFFFFFFFFFFFFFFFFFFFFFFFFFF39C65F
:10308000AB5AE420E420E42066299EF7FFFFFFFF0F
:10309000FFFFFFFFFFFFFFFFFFFFFFFFFFFFFFFF40
:1030A000FFFFFFFFFFFFFFFFC739E4206629F39C06
:1030B000FFFFFFFFFFFFFFFFFFFFFFFFFFFFFFFF20
:1030C000FFFFFFFFFFFFFFFFFFFFFFFFFFFFFFFF10
:1030D000FFFFF39CE420E420E4207294FFFFFFFF55
:1030E000FFFFFFFFFFFFFFFFFFFFFFFFFFFFFFFFF0
:1030F000FFFFFFFFFFFF55ADE4206629BAD6FFFFB3
:10310000FFFFFFFFFFFFFFFFFFFFFFFFFFFFFFFFCF
:10311000FFFFFFFFFFFFFFFFFFFFFFFFFFFFFFFFBF
:10312000FFFFFFFF55ADE420E42066299EF7FFFF77
:10313000FFFFFFFFFFFFFFFFFFFFFFFFFFFFFFFF9F
:10314000FFFFFFFFFFFF494AE42075ADFFFFFFFFD0
:10315000FFFFFFFFFFFFFFFFFFFFFFFFFFFFFFFF7F
:10316000FFFFFFFFFFFFFFFFFFFFFFFFFFFFFFFF6F
:10317000FFFFFFFFFFFF1084E420E420D7BDFFFF27
:10318000FFFFFFFFFFFFFFFFFFFFFFFFFFFFFFFF4F
:10319000FFFFFFFFFFFFE420AB5AFFFFFFFFFFFF32
:1031A000FFFFFFFFFFFFFFFFFFFFFFFFFFFFFFFF2F
:1031B000FFFFFFFFFFFFFFFFFFFFFFFFFFFFFFFF1F
:1031C000FFFFFFFFFFFF9EF76629E4208E73FFFFDE
:1031D000FFFFFFFFFFFFFFFFFFFFFFFFFFFFFFFFFF
:1031E000FFFFFFFF1CE7E4203CE7FFFFFFFFFFFFBF
:1031F000FFFFFFFFFFFFFFFFFFFFFFFFFFFFFFFFDF
:10320000FFFFFFFFFFFFFFFFFFFFFFFFFFFFFFFFCE
:10321000FFFFFFFFFFFFFFFF9EF7E420F39CFFFF90
:10322000FFFFFFFFFFFFFFFFFFFFFFFFFFFFFFFFAE
:10323000FFFFFFFFD7BDE4207294FFFFFFFFFFFFFA
:10324000FFFFFFFFFFFFFFFFFFFFFFFFFFFFFFFF8E
:10325000FFFFFFFFFFFFFFFFFFFFFFFFFFFFFFFF7E
:10326000FFFFFFFFFFFFFFFFD7BDE4203CE7FFFFAD
:10327000FFFFFFFFFFFFFFFFFFFFFFFFFFFFFFFF5E
:10328000FFFFFFFFFFFF8E7366299EF7FFFFFFFF23
:10329000FFFFFFFFFFFFFFFFFFFFFFFFFFFFFFFF3E
:1032A000FFFFFFFFFFFFFFFFFFFFFFFFFFFFFFFF2E
:1032B000FFFFFFFFFFFFFFFFAB5A8E73FFFFFFFF14
:1032C000FFFFFFFFFFFFFFFFFFFFFFFFFFFFFFFF0E
:1032D000FFFFFFFFFFFF1CE7E420AB5AFFFFFFFFEC
:1032E000FFFFFFFFFFFFFFFFFFFFFFFFFFFFFFFFEE
:1032F000FFFFFFFFFFFFFFFFFFFFFFFFFFFFFFFFDE
:10330000FFFFFFFFFFFFD7BD66293CE7FFFFFFFF81
:10331000FFFFFFFFFFFFFFFFFFFFFFFFFFFFFFFFBD
:10332000FFFFFFFFFFFFFFFFE739E4202D639EF75C
:10333000FFFFFFFFFFFFFFFFFFFFFFFFFFFFFFFF9D
:10334000FFFFFFFFFFFFFFFFFFFFFFFFFFFFFFFF8D
:10335000FFFFFFFFBAD6662975ADFFFFFFFFFFFF36
:10336000FFFFFFFFFFFFFFFFFFFFFFFFFFFFFFFF6D
:10337000FFFFFFFFFFFF55ADE420E420E4206629B6
:1033800075ADFFFFFFFFFFFFFFFFFFFFFFFFFFFF29
:10339000FFFFFFFFFFFFFFFFFFFFFFFFFFFFFFFF3D
:1033A000FFFFBAD6662975ADFFFFFFFFFFFFFFFFE6
:1033B000FFFFFFFFFFFFFFFFFFFFFFFFFFFFFFFF1D
:1033C000FFFFFFFFFFFFE420E420E420E420E420EF
:1033D000E420C739F39C3CE7FFFFFFFFFFFFFFFF3F
:1033E000FFFFFFFFFFFFFFFFFFFFFFFFFFFFFFFFED
:1033F00039C6C73975ADFFFFFFFFFFFFFFFFFFFFB6
:10340000FFFFFFFFFFFFFFFFFFFFFFFFFFFFFFFFCC
:10341000FFFFFFFF2C63FFFFFFFF1CE759CE59CED4
:1034200059CEF39C729459CEFFFFFFFFFFFFFFFFC1
:10343000FFFFFFFFFFFFFFFFFFFFFFFFFFFF39C69B
:10344000AB5ABAD6FFFFFFFFFFFFFFFFFFFFFFFFF3
:10345000FFFFFFFFFFFFFFFFFFFFFFFFFFFFFFFF7C
:10346000FFFFFFFFFFFFFFFFFFFFFFFFFFFFFFFF6C
:10347000FFFFFFFFFFFFFFFFFFFFFFFFFFFFFFFF5C
:10348000FFFFFFFFFFFFFFFFFFFFFFFFFFFF9EF7B5
:10349000FFFFFFFFFFFFFFFFFFFFFFFFFFFFFFFF3C
:1034A000FFFFFFFFFFFFFFFFFFFFFFFFFFFFFFFF2C
:1034B000FFFFFFFFFFFFFFFFFFFFFFFFFFFFFFFF1C
:1034C000FFFFFFFFFFFFFFFFFFFFFFFFFFFFFFFF0C
:1034D000FFFFFFFFFFFFFFFFFFFFFFFFFFFFFFFFFC
:1034E000FFFFFFFFFFFFFFFFFFFFFFFFFFFFFFFFEC
:1034F000FFFFFFFFFFFFFFFFFFFFFFFFFFFFFFFFDC
:10350000FFFFFFFFFFFF75ADFFFFFFFFFFFFFFFFA7
:10351000FFFFFFFFFFFFFFFFFFFFFFFFFFFFFFFFBB
:10352000FFFFFFFFFFFFFFFFFFFFFFFFFFFFFFFFAB
:10353000FFFFFFFFFFFFFFFFFFFF39C63CE7FFFF75
:10354000FFFFFFFFFFFFFFFFFFFFFFFFFFFFFFFF8B
:10355000FFFFFFFFFFFFAB5AFFFFFFFFFFFFFFFF74
:10356000FFFFFFFFFFFFFFFFFFFFFFFFFFFFFFFF6B
:10357000FFFFFFFFFFFFFFFFFFFFFFFFFFFFFFFF5B
:10358000FFFFFFFFFFFFFFFFFFFF728C59CEFFFF22
:10359000FFFFFFFFFFFFFFFFFFFFFFFFFFFFFFFF3B
:1035A000FFFFFFFFFFFFAB5AFFFFFFFFFFFFFFFF24
:1035B000FFFFFFFFFFFFFFFFFFFFFFFFFFFFFFFF1B
:1035C000FFFFFFFFFFFFFFFFFFFFFFFFFFFFFFFF0B
:1035D000FFFFFFFFFFFFFFFFFFFF8E7359CEFFFFCF
:1035E000FFFFFFFFFFFFFFFFFFFFFFFFFFFFFFFFEB
:1035F000FFFFFFFFFFFFE420BAD6FFFFFFFFFFFF43
:10360000FFFFFFFFFFFFFFFFFFFFFFFFFFFFFFFFCA
:10361000FFFFFFFFFFFFFFFFFFFFFFFFFFFFFFFFBA
:10362000FFFFFFFFFFFFFFFFBAD6662959CEFFFF5E
:10363000FFFFFFFFFFFFFFFFFFFFFFFFFFFFFFFF9A
:10364000FFFFFFFFFFFFE420E420AB5AAB5A1084DA
:10365000729472947294729472947294729472943A
:10366000729472947294729472947294729472942A
:1036700072941084AB5AAB5A6629E42059CEFFFFEE
:10368000FFFFFFFFFFFFFFFFFFFFFFFFFFFFFFFF4A
:10369000FFFFFFFFFFFFE420E420E420E420E4201C
:1036A000E420E420E420E420E420E420E420E420FA
:1036B000E420E420E420E420E420E420E420E420EA
:1036C000E420E420E420E420E420E42059CEFFFFBD
:1036D000FFFFFFFFFFFFFFFFFFFFFFFFFFFFFFFFFA
:1036E000FFFFFFFFFFFFE420E420E420E420E420CC
:1036F000E420E420E420E420E420E420E420E420AA
:10370000E420E420E420E420E420E420E420E42099
:10371000E420E420E420E420E420E42059CEFFFF6C
:10372000FFFFFFFFFFFFFFFFFFFFFFFFFFFFFFFFA9
:10373000FFFFFFFFFFFFE420E420E420E420E4207B
:10374000E420E420E420E420E420E420E420E42059
:10375000E420E420E420E420E420E420E420E42049
:10376000E420E420E420E420E420E42059CEFFFF1C
:10377000FFFFFFFFFFFFFFFFFFFFFFFFFFFFFFFF59
:10378000FFFFFFFFFFFFE4208E7359CE59CE59CEC5
:1037900059CE59CE59CE59CE59CE59CE59CE494A85
:1037A000494A59CE59CE59CE59CE59CE59CE59CE75
:1037B00059CE59CE59CE75AD494AE42059CEFFFFB6
:1037C000FFFFFFFFFFFFFFFFFFFFFFFFFFFFFFFF09
:1037D000FFFFFFFFFFFFE4207294FFFFFFFFFFFFEB
:1037E000FFFFFFFFFFFFFFFFFFFFFFFFFFFFAB52EA
:1037F000AB5AFFFFFFFFFFFFFFFFFFFFFFFFFFFFD2
:10380000FFFFFFFFFFFFFFFFD7BDE42059CEFFFF03
:10381000FFFFFFFFFFFFFFFFFFFFFFFFFFFFFFFFB8
:10382000FFFFFFFFFFFFE4207294FFFFFFFFFFFF9A
:10383000FFFFFFFFFFFFFFFFFFFFFFFFFFFFAB5299
:10384000AB5AFFFFFFFFFFFFFFFFFFFFFFFFFFFF81
:10385000FFFFFFFFFFFFFFFF39C6E42059CEFFFF48
:10386000FFFFFFFFFFFFFFFFFFFFFFFFFFFFFFFF68
:10387000FFFFFFFFFFFFE4207294FFFFFFFFFFFF4A
:10388000FFFFFFFFFFFFFFFFFFFFFFFFFFFF494AB3
:10389000AB5AFFFFFFFFFFFFFFFFFFFFFFFFFFFF31
:1038A000FFFFFFFFFFFFFFFF39C6E42059CEFFFFF8
:1038B000FFFFFFFFFFFFFFFFFFFFFFFFFFFFFFFF18
:1038C000FFFFFFFFFFFFE4207294FFFFFFFFFFFFFA
:1038D000FFFFFFFFFFFFFFFFFFFFFFFF9EF7E4205B
:1038E000E420FFFFFFFFFFFFFFFFFFFFFFFFFFFFE2
:1038F000FFFFFFFFFFFFFFFF39C6E42059CEFFFFA8
:10390000FFFFFFFFFFFFFFFFFFFFFFFFFFFFFFFFC7
:10391000FFFFFFFFFFFFE4207294FFFFFFFFFFFFA9
:10392000FFFFFFFFFFFFFFFFFFFFFFFF8E73E4209E
:10393000E4208E73FFFFFFFFFFFFFFFFFFFFFFFF8E
:10394000FFFFFFFFFFFFFFFFD7BDE42059CEFFFFC2
:10395000FFFFFFFFFFFFFFFFFFFFFFFFFFFFFFFF77
:10396000FFFFFFFFFFFFE4202D63FFFFFFFFFFFFCF
:10397000FFFFFFFFFFFF55AD1084C739E420E420AF
:10398000E420E420C739108475ADFFFFFFFFFFFF7F
:10399000FFFFFFFFFFFFFFFF1084E42059CEFFFF72
:1039A000FFFFFFFFFFFFFFFFFFFFFFFFFFFFFFFF27
:1039B000FFFFFFFFFFFFE420E420BAD6FFFFFFFF79
:1039C000FFFFFFFFFFFF55AD7294729472947294E3
:1039D000729472947294729475ADFFFFFFFFFFFFB3
:1039E000FFFFFFFFFFFF9EF7C739E42059CEFFFF1F
:1039F000FFFFFFFFFFFFFFFFFFFFFFFFFFFFFFFFD7
:103A0000FFFFFFFFFFFFE420E42066291084BAD601
:103A1000FFFFFFFFFFFFFFFFFFFFFFFFFFFFFFFFB6
:103A2000FFFFFFFFFFFFFFFFFFFFFFFFFFFFFFFFA6
:103A3000FFFFFFFFFFFF2D63E420E42059CEFFFFCF
:103A4000FFFFFFFFFFFFFFFFFFFFFFFFFFFFFFFF86
:103A5000FFFFFFFFFFFFAB5AAB5AAB5AAB5A494AC5
:103A60006629FFFFFFFFFFFFFFFFFFFFFFFFFFFFD5
:103A7000FFFFFFFFFFFFFFFFFFFFFFFFFFFFFFFF56
:103A8000FFFF9EF7AB5AE420E420C739BAD6FFFF08
:103A9000FFFFFFFFFFFFFFFFFFFFFFFFFFFFFFFF36
:103AA000FFFFFFFFFFFFFFFFFFFFFFFFFFFFFFFF26
:103AB000FFFFFFFFFFFFFFFFFFFFFFFFFFFFFFFF16
:103AC000FFFFFFFFFFFFFFFFFFFFFFFFFFFFFFFF06
:103AD000F39C662966298E7359CEFFFFFFFFFFFF17
:103AE000FFFFFFFFFFFFFFFFFFFFFFFFFFFFFFFFE6
:103AF000FFFFFFFFFFFFFFFFFFFFFFFFFFFFFFFFD6
:103B0000FFFFFFFFFFFFFFFFFFFFFFFFFFFFFFFFC5
:103B1000FFFFFFFFFFFFFFFFFFFFFFFFFFFFF39C24
:103B20008E73D7BDFFFFFFFFFFFFFFFFFFFFFFFF0C
:103B3000FFFFFFFFFFFFFFFFFFFFFFFFFFFFFFFF95
:103B4000FFFFFFFFFFFFFFFFFFFFFFFFFFFFFFFF85
:103B5000FFFFFFFFFFFFFFFFFFFFFFFFFFFFFFFF75
:103B6000FFFFFFFFFFFFFFFFFFFFFFFFFFFFFFFF65
:103B7000FFFFFFFFFFFFFFFFFFFFFFFFFFFFFFFF55
:103B8000FFFFFFFF48656C6C6F00AD486F6C6121F3
:103B9000004F6CA000416C6C8300476F6F646279CA
:103BA0006500416469A273005463686175004175E2
:103BB000207265766F697200456E676C6973680084
:103BC00045737061A46F6C00506F7274756775886F
:103BD00073004672616E8761697300000000000027
:103BE000003E5B4F5B3E3E6B4F6B3E1C3E7C3E1C83
:103BF000183C7E3C181C577D571C1C5E7F5E1C00C9
:103C0000183C1800FFE7C3E7FF0018241800FFE77F
:103C1000DBE7FF30483A060E2629792926407F0542
:103C20000507407F05253F5A3CE73C5A7F3E1C1C58
:103C300008081C1C3E7F14227F22145F5F005F5F18
:103C400006097F017F006689956A60606060609404
:103C5000A2FFA29408047E040810207E2010080809
:103C60002A1C08081C2A08081E101010100C1E0C14
:103C70001E0C30383E3830060E3E0E0600000000A6
:103C80000000005F00000007000700147F147F148D
:103C9000242A7F2A122313086462364956205000D2
:103CA00008070300001C2241000041221C002A1CBE
:103CB0007F1C2A08083E08080080703000080808A9
:103CC0000808000060600020100804023E514945C9
:103CD0003E00427F400072494949462141494D33E7
:103CE0001814127F1027454545393C4A494931414E
:103CF000211109073649494936464949291E00001C
:103D00001400000040340000000814224114141470
:103D10001414004122140802015909063E415D595C
:103D20004E7C1211127C7F494949363E4141412265
:103D30007F4141413E7F494949417F090909013E8F
:103D4000414151737F0808087F00417F41002040B6
:103D5000413F017F081422417F404040407F021CC8
:103D6000027F7F0408107F3E4141413E7F090909DF
:103D7000063E4151215E7F091929462649494932AB
:103D800003017F01033F4040403F1F2040201F3F71
:103D90004038403F631408146303047804036159F6
:103DA000494D43007F414141020408102000414138
:103DB000417F0402010204404040404000030708E4
:103DC0000020545478407F284444383844444428E0
:103DD000384444287F385454541800087E09021887
:103DE000A4A49C787F0804047800447D400020400F
:103DF000403D007F1028440000417F40007C047853
:103E000004787C080404783844444438FC1824249A
:103E10001818242418FC7C0804040848545454241A
:103E200004043F44243C4040207C1C2040201C3C97
:103E30004030403C44281028444C9090907C44648E
:103E4000544C440008364100000077000000413621
:103E5000080002010204023C2623263C1EA1A161A7
:103E6000123A4040207A38545455592155557941D9
:103E70002154547841215554784020545579400CB0
:103E80001E52721239555555593954545459395591
:103E90005454580000457C410002457D42000145D4
:103EA0007C40F0292429F0F0282528F07C54554541
:103EB000002054547C547C0A097F493249494932D4
:103EC0003248484832324A4848303A4141217A3AE9
:103ED00042402078009DA0A07D39444444393D40B3
:103EE00040403D3C24FF2424487E4943662B2FFC60
:103EF0002F2BFF0929F620C0887E0903205454790E
:103F0000410000447D413048484A32384040227ADE
:103F1000007A0A0A727D0D19317D2629292F28265B
:103F20002929292630484D40203808080808080863
:103F30000808382F10C8ACBA2F102834FA00007BBC
:103F4000000008142A142222142A1408AA0055007A
:103F5000AAAA55AA55AA000000FF00101010FF00E1
:103F6000141414FF001010FF00FF1010F010F014D4
:103F70001414FC001414F700FF0000FF00FF1414D9
:103F8000F404FC141417101F10101F101F14141425
:103F90001F00101010F0000000001F101010101F64
:103FA00010101010F010000000FF10101010101072
:103FB000101010FF10000000FF140000FF00FF00B1
:103FC000001F10170000FC04F41414171017141429
:103FD000F404F40000FF00F714141414141414F77C
:103FE00000F7141414171410101F101F141414F4D5
:103FF000141010F010F000001F101F0000001F141C
:10400000000000FC140000F010F01010FF10FF146E
:104010001414FF141010101F00000000F010FFFF18
:10402000FFFFFFF0F0F0F0F0FFFFFF0000000000E6
:10403000FFFF0F0F0F0F0F38444438447C2A2A3EED
:10404000147E02020606027E027E02635549416327
:104050003844443C04407E201E2006027E02029921
:10406000A5E7A5991C2A492A1C4C7201724C304ABA
:104070004D4D303048784830BC625A463D3E494943
:1040800049007E0101017E2A2A2A2A2A44445F44EB
:104090004440514A444040444A51400000FF01031B
:1040A000E080FF000008086B6B08361236243606E5
:1040B0000F090F0600001818000000101000304013
:1040C000FF0101001F01011E00191D1712003C3CD9
:1040D0003C3C0000000000120180321180FF3A8158
:1040E000050AB1830006030A360108B6021502B4B8
:1040F0000100C08202700AC10105C2020102C5822C
:104100003C380AFC021115E01009160920211B1386
:104110001917151E2B0405020EE1900B14081E2220
:104120001D181E1B1A242B0606020F0A2A04000261
:1041300000812B040002008113800A2980FF0F01F7
:1041400080961180FFB103012C2DB203012C2DB3F9
:1041500006012C2D012C2DB40107C003A20284C13D
:1041600001C5C2020A00C3028A2AC4028AEEC5013E
:104170000E20003601C83A0105022A04000200811F
:104180002B04000100A0022A040000007F2B040081
:1041900000009F04E010021C07123732292D292548
:1041A0002B3900010310E110031D07062E2C292DC9
:1041B0002E2E373F0000021013800A29806402006F
:1041C00003000200010004000400000005000600D6
:1041D00000000500060001000400040002000300C6
:1041E00002000400050002000200070006000100B2
:1041F00008000800010008000800000009000A008B
:10420000000009000A000100080008000100080081
:1042100008000200070006000400050002009F9F3E
:104220009189837E7B777572706E6C6B6968676548
:1042300064636261605F5E5D5D5C5B5A5A595858A9
:10424000575756555554545353525251515150503B
:104250004F4F4F4E4E4D4D4D4C4C4C4B4B4B4A4A95
:104260004A494949484848484747474746464646D5
:104270004545454544444444434343434242424206
:1042800042414141414140404040403F3F3F3F3F2C
:104290003F3E3E3E3E3E3E3D3D3D3D3D3D3C3C3C49
:1042A0003C3C3C3B3B3B3B3B3B3B3A3A3A3A3A3A61
:1042B0003A39393939393939383838383838383875
:1042C0003737373737373737363636363636363686
:1042D0003535353535353535353434343434343495
:1042E000343434333333333333333333333232329E
:1042F00032323232323232313131313131313131A7
:10430000313130303030303030303030302F2F2FAE
:104310002F2F2F2F2F2F2F2F2F2E2E2E2E2E2E2EB4
:104320002E2E2E2E2E2E2D2D2D2D2D2D2D2D2D2DB7
:104330002D2D2D2C2C2C2C2C2C2C2C2C2C2C2C2CBA
:104340002C2B2B2B2B2B2B2B2B2B2B2B2B2B2B2BBC
:104350002A2A2A2A2A2A2A2A2A2A2A2A2A2A2A29BE
:1043600029292929292929292929292929292928BE
:1043700028282828282828282828282828282828BD
:1043800027272727272727272727272727272727BD
:1043900027272626262626262626262626262626BB
:1043A00026262626262525252525252525252525B8
:1043B00025252525252525252424242424242424B5
:1043C00024242424242424242424242424232323B0
:1043D00023232323232323232323232323232323AD
:1043E00023232222222222222222222222222222AB
:1043F00022222222222222222221212121212121A4
:10440000212121212121212121212121212121219C
:1044100021202020202020202020202020200000DB
:1044200040440000000000202C0000000C060000AA
:104430006C4400002C000020040400001C06000056
:104440000000000000000000FF07000000008000E6
:10445000A0000000000000000000000000000000BC
:0C44600000000000000000000000000050
:040000050000026D88
:00000001FF
